{
  "_format": "hh-sol-artifact-1",
  "contractName": "NFT",
  "sourceName": "contracts/NFT.sol",
  "abi": [
    {
      "inputs": [],
      "stateMutability": "nonpayable",
      "type": "constructor"
    },
    {
      "anonymous": false,
      "inputs": [
        {
          "indexed": true,
          "internalType": "address",
          "name": "owner",
          "type": "address"
        },
        {
          "indexed": true,
          "internalType": "address",
          "name": "approved",
          "type": "address"
        },
        {
          "indexed": true,
          "internalType": "uint256",
          "name": "tokenId",
          "type": "uint256"
        }
      ],
      "name": "Approval",
      "type": "event"
    },
    {
      "anonymous": false,
      "inputs": [
        {
          "indexed": true,
          "internalType": "address",
          "name": "owner",
          "type": "address"
        },
        {
          "indexed": true,
          "internalType": "address",
          "name": "operator",
          "type": "address"
        },
        {
          "indexed": false,
          "internalType": "bool",
          "name": "approved",
          "type": "bool"
        }
      ],
      "name": "ApprovalForAll",
      "type": "event"
    },
    {
      "anonymous": false,
      "inputs": [
        {
          "indexed": true,
          "internalType": "address",
          "name": "previousOwner",
          "type": "address"
        },
        {
          "indexed": true,
          "internalType": "address",
          "name": "newOwner",
          "type": "address"
        }
      ],
      "name": "OwnershipTransferred",
      "type": "event"
    },
    {
      "anonymous": false,
      "inputs": [
        {
          "indexed": false,
          "internalType": "uint256",
          "name": "tokenId",
          "type": "uint256"
        },
        {
          "components": [
            {
              "internalType": "address payable",
              "name": "account",
              "type": "address"
            },
            {
              "internalType": "uint96",
              "name": "value",
              "type": "uint96"
            }
          ],
          "indexed": false,
          "internalType": "struct LibPart.Part[]",
          "name": "royalties",
          "type": "tuple[]"
        }
      ],
      "name": "RoyaltiesSet",
      "type": "event"
    },
    {
      "anonymous": false,
      "inputs": [
        {
          "indexed": true,
          "internalType": "address",
          "name": "from",
          "type": "address"
        },
        {
          "indexed": true,
          "internalType": "address",
          "name": "to",
          "type": "address"
        },
        {
          "indexed": true,
          "internalType": "uint256",
          "name": "tokenId",
          "type": "uint256"
        }
      ],
      "name": "Transfer",
      "type": "event"
    },
    {
      "inputs": [
        {
          "internalType": "address",
          "name": "to",
          "type": "address"
        },
        {
          "internalType": "uint256",
          "name": "tokenId",
          "type": "uint256"
        }
      ],
      "name": "approve",
      "outputs": [],
      "stateMutability": "nonpayable",
      "type": "function"
    },
    {
      "inputs": [
        {
          "internalType": "address",
          "name": "owner",
          "type": "address"
        }
      ],
      "name": "balanceOf",
      "outputs": [
        {
          "internalType": "uint256",
          "name": "",
          "type": "uint256"
        }
      ],
      "stateMutability": "view",
      "type": "function"
    },
    {
      "inputs": [
        {
          "internalType": "uint256",
          "name": "tokenId",
          "type": "uint256"
        }
      ],
      "name": "getApproved",
      "outputs": [
        {
          "internalType": "address",
          "name": "",
          "type": "address"
        }
      ],
      "stateMutability": "view",
      "type": "function"
    },
    {
      "inputs": [
        {
          "internalType": "uint256",
          "name": "id",
          "type": "uint256"
        }
      ],
      "name": "getRaribleV2Royalties",
      "outputs": [
        {
          "components": [
            {
              "internalType": "address payable",
              "name": "account",
              "type": "address"
            },
            {
              "internalType": "uint96",
              "name": "value",
              "type": "uint96"
            }
          ],
          "internalType": "struct LibPart.Part[]",
          "name": "",
          "type": "tuple[]"
        }
      ],
      "stateMutability": "view",
      "type": "function"
    },
    {
      "inputs": [
        {
          "internalType": "address",
          "name": "owner",
          "type": "address"
        },
        {
          "internalType": "address",
          "name": "operator",
          "type": "address"
        }
      ],
      "name": "isApprovedForAll",
      "outputs": [
        {
          "internalType": "bool",
          "name": "",
          "type": "bool"
        }
      ],
      "stateMutability": "view",
      "type": "function"
    },
    {
      "inputs": [
        {
          "internalType": "address",
          "name": "_to",
          "type": "address"
        }
      ],
      "name": "mint",
      "outputs": [],
      "stateMutability": "nonpayable",
      "type": "function"
    },
    {
      "inputs": [],
      "name": "name",
      "outputs": [
        {
          "internalType": "string",
          "name": "",
          "type": "string"
        }
      ],
      "stateMutability": "view",
      "type": "function"
    },
    {
      "inputs": [],
      "name": "owner",
      "outputs": [
        {
          "internalType": "address",
          "name": "",
          "type": "address"
        }
      ],
      "stateMutability": "view",
      "type": "function"
    },
    {
      "inputs": [
        {
          "internalType": "uint256",
          "name": "tokenId",
          "type": "uint256"
        }
      ],
      "name": "ownerOf",
      "outputs": [
        {
          "internalType": "address",
          "name": "",
          "type": "address"
        }
      ],
      "stateMutability": "view",
      "type": "function"
    },
    {
      "inputs": [],
      "name": "renounceOwnership",
      "outputs": [],
      "stateMutability": "nonpayable",
      "type": "function"
    },
    {
      "inputs": [
        {
          "internalType": "uint256",
          "name": "_tokenId",
          "type": "uint256"
        },
        {
          "internalType": "uint256",
          "name": "_salePrice",
          "type": "uint256"
        }
      ],
      "name": "royaltyInfo",
      "outputs": [
        {
          "internalType": "address",
          "name": "receiver",
          "type": "address"
        },
        {
          "internalType": "uint256",
          "name": "royaltyAmount",
          "type": "uint256"
        }
      ],
      "stateMutability": "view",
      "type": "function"
    },
    {
      "inputs": [
        {
          "internalType": "address",
          "name": "from",
          "type": "address"
        },
        {
          "internalType": "address",
          "name": "to",
          "type": "address"
        },
        {
          "internalType": "uint256",
          "name": "tokenId",
          "type": "uint256"
        }
      ],
      "name": "safeTransferFrom",
      "outputs": [],
      "stateMutability": "nonpayable",
      "type": "function"
    },
    {
      "inputs": [
        {
          "internalType": "address",
          "name": "from",
          "type": "address"
        },
        {
          "internalType": "address",
          "name": "to",
          "type": "address"
        },
        {
          "internalType": "uint256",
          "name": "tokenId",
          "type": "uint256"
        },
        {
          "internalType": "bytes",
          "name": "_data",
          "type": "bytes"
        }
      ],
      "name": "safeTransferFrom",
      "outputs": [],
      "stateMutability": "nonpayable",
      "type": "function"
    },
    {
      "inputs": [
        {
          "internalType": "address",
          "name": "operator",
          "type": "address"
        },
        {
          "internalType": "bool",
          "name": "approved",
          "type": "bool"
        }
      ],
      "name": "setApprovalForAll",
      "outputs": [],
      "stateMutability": "nonpayable",
      "type": "function"
    },
    {
      "inputs": [
        {
          "internalType": "uint256",
          "name": "_tokenId",
          "type": "uint256"
        },
        {
          "internalType": "address payable",
          "name": "_royaltiesRecipientAddress",
          "type": "address"
        },
        {
          "internalType": "uint96",
          "name": "_percentageBasisPoints",
          "type": "uint96"
        }
      ],
      "name": "setRoyalties",
      "outputs": [],
      "stateMutability": "nonpayable",
      "type": "function"
    },
    {
      "inputs": [
        {
          "internalType": "bytes4",
          "name": "interfaceId",
          "type": "bytes4"
        }
      ],
      "name": "supportsInterface",
      "outputs": [
        {
          "internalType": "bool",
          "name": "",
          "type": "bool"
        }
      ],
      "stateMutability": "view",
      "type": "function"
    },
    {
      "inputs": [],
      "name": "symbol",
      "outputs": [
        {
          "internalType": "string",
          "name": "",
          "type": "string"
        }
      ],
      "stateMutability": "view",
      "type": "function"
    },
    {
      "inputs": [
        {
          "internalType": "uint256",
          "name": "tokenId",
          "type": "uint256"
        }
      ],
      "name": "tokenURI",
      "outputs": [
        {
          "internalType": "string",
          "name": "",
          "type": "string"
        }
      ],
      "stateMutability": "view",
      "type": "function"
    },
    {
      "inputs": [
        {
          "internalType": "address",
          "name": "from",
          "type": "address"
        },
        {
          "internalType": "address",
          "name": "to",
          "type": "address"
        },
        {
          "internalType": "uint256",
          "name": "tokenId",
          "type": "uint256"
        }
      ],
      "name": "transferFrom",
      "outputs": [],
      "stateMutability": "nonpayable",
      "type": "function"
    },
    {
      "inputs": [
        {
          "internalType": "address",
          "name": "newOwner",
          "type": "address"
        }
      ],
      "name": "transferOwnership",
      "outputs": [],
      "stateMutability": "nonpayable",
      "type": "function"
    }
  ],
  "bytecode": "0x60806040523480156200001157600080fd5b506040518060400160405280600481526020017f4e696b69000000000000000000000000000000000000000000000000000000008152506040518060400160405280600681526020017f4e696b6974610000000000000000000000000000000000000000000000000000815250816000908051906020019062000096929190620001a6565b508060019080519060200190620000af929190620001a6565b505050620000d2620000c6620000d860201b60201c565b620000e060201b60201c565b620002bb565b600033905090565b6000600660009054906101000a900473ffffffffffffffffffffffffffffffffffffffff16905081600660006101000a81548173ffffffffffffffffffffffffffffffffffffffff021916908373ffffffffffffffffffffffffffffffffffffffff1602179055508173ffffffffffffffffffffffffffffffffffffffff168173ffffffffffffffffffffffffffffffffffffffff167f8be0079c531659141344cd1fd0a4f28419497f9722a3daafe3b4186f6b6457e060405160405180910390a35050565b828054620001b49062000256565b90600052602060002090601f016020900481019282620001d8576000855562000224565b82601f10620001f357805160ff191683800117855562000224565b8280016001018555821562000224579182015b828111156200022357825182559160200191906001019062000206565b5b50905062000233919062000237565b5090565b5b808211156200025257600081600090555060010162000238565b5090565b600060028204905060018216806200026f57607f821691505b602082108114156200028657620002856200028c565b5b50919050565b7f4e487b7100000000000000000000000000000000000000000000000000000000600052602260045260246000fd5b61385580620002cb6000396000f3fe608060405234801561001057600080fd5b506004361061012c5760003560e01c806370a08231116100ad578063b88d4fde11610071578063b88d4fde1461032e578063c87b56dd1461034a578063cad96cca1461037a578063e985e9c5146103aa578063f2fde38b146103da5761012c565b806370a082311461029c578063715018a6146102cc5780638da5cb5b146102d657806395d89b41146102f4578063a22cb465146103125761012c565b806323b872dd116100f457806323b872dd146101e75780632a55205a1461020357806342842e0e146102345780636352211e146102505780636a627842146102805761012c565b806301ffc9a71461013157806306fdde0314610161578063081812fc1461017f578063095ea7b3146101af578063143094db146101cb575b600080fd5b61014b60048036038101906101469190612645565b6103f6565b6040516101589190613062565b60405180910390f35b6101696104b5565b604051610176919061307d565b60405180910390f35b61019960048036038101906101949190612697565b610547565b6040516101a69190612fb0565b60405180910390f35b6101c960048036038101906101c49190612609565b6105cc565b005b6101e560048036038101906101e091906126c0565b6106e4565b005b61020160048036038101906101fc9190612503565b6108d1565b005b61021d6004803603810190610218919061270f565b610931565b60405161022b929190613017565b60405180910390f35b61024e60048036038101906102499190612503565b610b07565b005b61026a60048036038101906102659190612697565b610b27565b6040516102779190612fb0565b60405180910390f35b61029a6004803603810190610295919061249e565b610bd9565b005b6102b660048036038101906102b1919061249e565b610c75565b6040516102c391906132ff565b60405180910390f35b6102d4610d2d565b005b6102de610db5565b6040516102eb9190612fb0565b60405180910390f35b6102fc610ddf565b604051610309919061307d565b60405180910390f35b61032c600480360381019061032791906125cd565b610e71565b005b61034860048036038101906103439190612552565b610e87565b005b610364600480360381019061035f9190612697565b610ee9565b604051610371919061307d565b60405180910390f35b610394600480360381019061038f9190612697565b610f90565b6040516103a19190613040565b60405180910390f35b6103c460048036038101906103bf91906124c7565b611092565b6040516103d19190613062565b60405180910390f35b6103f460048036038101906103ef919061249e565b611126565b005b600063cad96cca60e01b7bffffffffffffffffffffffffffffffffffffffffffffffffffffffff1916827bffffffffffffffffffffffffffffffffffffffffffffffffffffffff1916141561044e57600190506104b0565b632a55205a60e01b7bffffffffffffffffffffffffffffffffffffffffffffffffffffffff1916827bffffffffffffffffffffffffffffffffffffffffffffffffffffffff191614156104a457600190506104b0565b6104ad8261121e565b90505b919050565b6060600080546104c49061361c565b80601f01602080910402602001604051908101604052809291908181526020018280546104f09061361c565b801561053d5780601f106105125761010080835404028352916020019161053d565b820191906000526020600020905b81548152906001019060200180831161052057829003601f168201915b5050505050905090565b600061055282611300565b610591576040517f08c379a00000000000000000000000000000000000000000000000000000000081526004016105889061321f565b60405180910390fd5b6004600083815260200190815260200160002060009054906101000a900473ffffffffffffffffffffffffffffffffffffffff169050919050565b60006105d782610b27565b90508073ffffffffffffffffffffffffffffffffffffffff168373ffffffffffffffffffffffffffffffffffffffff161415610648576040517f08c379a000000000000000000000000000000000000000000000000000000000815260040161063f9061327f565b60405180910390fd5b8073ffffffffffffffffffffffffffffffffffffffff1661066761136c565b73ffffffffffffffffffffffffffffffffffffffff16148061069657506106958161069061136c565b611092565b5b6106d5576040517f08c379a00000000000000000000000000000000000000000000000000000000081526004016106cc9061319f565b60405180910390fd5b6106df8383611374565b505050565b6106ec61136c565b73ffffffffffffffffffffffffffffffffffffffff1661070a610db5565b73ffffffffffffffffffffffffffffffffffffffff1614610760576040517f08c379a00000000000000000000000000000000000000000000000000000000081526004016107579061323f565b60405180910390fd5b6000600167ffffffffffffffff8111156107a3577f4e487b7100000000000000000000000000000000000000000000000000000000600052604160045260246000fd5b6040519080825280602002602001820160405280156107dc57816020015b6107c9612365565b8152602001906001900390816107c15790505b509050818160008151811061081a577f4e487b7100000000000000000000000000000000000000000000000000000000600052603260045260246000fd5b6020026020010151602001906bffffffffffffffffffffffff1690816bffffffffffffffffffffffff16815250508281600081518110610883577f4e487b7100000000000000000000000000000000000000000000000000000000600052603260045260246000fd5b60200260200101516000019073ffffffffffffffffffffffffffffffffffffffff16908173ffffffffffffffffffffffffffffffffffffffff16815250506108cb848261142d565b50505050565b6108e26108dc61136c565b82611748565b610921576040517f08c379a00000000000000000000000000000000000000000000000000000000081526004016109189061329f565b60405180910390fd5b61092c838383611826565b505050565b600080600060076000868152602001908152602001600020805480602002602001604051908101604052809291908181526020016000905b82821015610a2b578382906000526020600020016040518060400160405290816000820160009054906101000a900473ffffffffffffffffffffffffffffffffffffffff1673ffffffffffffffffffffffffffffffffffffffff1673ffffffffffffffffffffffffffffffffffffffff1681526020016000820160149054906101000a90046bffffffffffffffffffffffff166bffffffffffffffffffffffff166bffffffffffffffffffffffff168152505081526020019060010190610969565b505050509050600081511115610af75780600081518110610a75577f4e487b7100000000000000000000000000000000000000000000000000000000600052603260045260246000fd5b60200260200101516000015161271082600081518110610abe577f4e487b7100000000000000000000000000000000000000000000000000000000600052603260045260246000fd5b6020026020010151602001516bffffffffffffffffffffffff1686610ae391906134ae565b610aed919061347d565b9250925050610b00565b60008092509250505b9250929050565b610b2283838360405180602001604052806000815250610e87565b505050565b6000806002600084815260200190815260200160002060009054906101000a900473ffffffffffffffffffffffffffffffffffffffff169050600073ffffffffffffffffffffffffffffffffffffffff168173ffffffffffffffffffffffffffffffffffffffff161415610bd0576040517f08c379a0000000000000000000000000000000000000000000000000000000008152600401610bc7906131df565b60405180910390fd5b80915050919050565b610be161136c565b73ffffffffffffffffffffffffffffffffffffffff16610bff610db5565b73ffffffffffffffffffffffffffffffffffffffff1614610c55576040517f08c379a0000000000000000000000000000000000000000000000000000000008152600401610c4c9061323f565b60405180910390fd5b610c6881610c636008611a8d565b611a9b565b610c726008611c75565b50565b60008073ffffffffffffffffffffffffffffffffffffffff168273ffffffffffffffffffffffffffffffffffffffff161415610ce6576040517f08c379a0000000000000000000000000000000000000000000000000000000008152600401610cdd906131bf565b60405180910390fd5b600360008373ffffffffffffffffffffffffffffffffffffffff1673ffffffffffffffffffffffffffffffffffffffff168152602001908152602001600020549050919050565b610d3561136c565b73ffffffffffffffffffffffffffffffffffffffff16610d53610db5565b73ffffffffffffffffffffffffffffffffffffffff1614610da9576040517f08c379a0000000000000000000000000000000000000000000000000000000008152600401610da09061323f565b60405180910390fd5b610db36000611c8b565b565b6000600660009054906101000a900473ffffffffffffffffffffffffffffffffffffffff16905090565b606060018054610dee9061361c565b80601f0160208091040260200160405190810160405280929190818152602001828054610e1a9061361c565b8015610e675780601f10610e3c57610100808354040283529160200191610e67565b820191906000526020600020905b815481529060010190602001808311610e4a57829003601f168201915b5050505050905090565b610e83610e7c61136c565b8383611d51565b5050565b610e98610e9261136c565b83611748565b610ed7576040517f08c379a0000000000000000000000000000000000000000000000000000000008152600401610ece9061329f565b60405180910390fd5b610ee384848484611ebe565b50505050565b6060610ef482611300565b610f33576040517f08c379a0000000000000000000000000000000000000000000000000000000008152600401610f2a9061325f565b60405180910390fd5b6000610f3d611f1a565b90506000815111610f5d5760405180602001604052806000815250610f88565b80610f6784611f31565b604051602001610f78929190612f8c565b6040516020818303038152906040525b915050919050565b606060076000838152602001908152602001600020805480602002602001604051908101604052809291908181526020016000905b82821015611087578382906000526020600020016040518060400160405290816000820160009054906101000a900473ffffffffffffffffffffffffffffffffffffffff1673ffffffffffffffffffffffffffffffffffffffff1673ffffffffffffffffffffffffffffffffffffffff1681526020016000820160149054906101000a90046bffffffffffffffffffffffff166bffffffffffffffffffffffff166bffffffffffffffffffffffff168152505081526020019060010190610fc5565b505050509050919050565b6000600560008473ffffffffffffffffffffffffffffffffffffffff1673ffffffffffffffffffffffffffffffffffffffff16815260200190815260200160002060008373ffffffffffffffffffffffffffffffffffffffff1673ffffffffffffffffffffffffffffffffffffffff16815260200190815260200160002060009054906101000a900460ff16905092915050565b61112e61136c565b73ffffffffffffffffffffffffffffffffffffffff1661114c610db5565b73ffffffffffffffffffffffffffffffffffffffff16146111a2576040517f08c379a00000000000000000000000000000000000000000000000000000000081526004016111999061323f565b60405180910390fd5b600073ffffffffffffffffffffffffffffffffffffffff168173ffffffffffffffffffffffffffffffffffffffff161415611212576040517f08c379a0000000000000000000000000000000000000000000000000000000008152600401611209906130bf565b60405180910390fd5b61121b81611c8b565b50565b60007f80ac58cd000000000000000000000000000000000000000000000000000000007bffffffffffffffffffffffffffffffffffffffffffffffffffffffff1916827bffffffffffffffffffffffffffffffffffffffffffffffffffffffff191614806112e957507f5b5e139f000000000000000000000000000000000000000000000000000000007bffffffffffffffffffffffffffffffffffffffffffffffffffffffff1916827bffffffffffffffffffffffffffffffffffffffffffffffffffffffff1916145b806112f957506112f8826120de565b5b9050919050565b60008073ffffffffffffffffffffffffffffffffffffffff166002600084815260200190815260200160002060009054906101000a900473ffffffffffffffffffffffffffffffffffffffff1673ffffffffffffffffffffffffffffffffffffffff1614159050919050565b600033905090565b816004600083815260200190815260200160002060006101000a81548173ffffffffffffffffffffffffffffffffffffffff021916908373ffffffffffffffffffffffffffffffffffffffff160217905550808273ffffffffffffffffffffffffffffffffffffffff166113e783610b27565b73ffffffffffffffffffffffffffffffffffffffff167f8c5be1e5ebec7d5bd14f71427d1e84f3dd0314c0f7b2291e5b200ac8c7c3b92560405160405180910390a45050565b600080600090505b82518110156116f457600073ffffffffffffffffffffffffffffffffffffffff1683828151811061148f577f4e487b7100000000000000000000000000000000000000000000000000000000600052603260045260246000fd5b60200260200101516000015173ffffffffffffffffffffffffffffffffffffffff1614156114f2576040517f08c379a00000000000000000000000000000000000000000000000000000000081526004016114e9906132df565b60405180910390fd5b600083828151811061152d577f4e487b7100000000000000000000000000000000000000000000000000000000600052603260045260246000fd5b6020026020010151602001516bffffffffffffffffffffffff161415611588576040517f08c379a000000000000000000000000000000000000000000000000000000000815260040161157f9061317f565b60405180910390fd5b8281815181106115c1577f4e487b7100000000000000000000000000000000000000000000000000000000600052603260045260246000fd5b6020026020010151602001516bffffffffffffffffffffffff16826115e69190613427565b915060076000858152602001908152602001600020838281518110611634577f4e487b7100000000000000000000000000000000000000000000000000000000600052603260045260246000fd5b60200260200101519080600181540180825580915050600190039060005260206000200160009091909190915060008201518160000160006101000a81548173ffffffffffffffffffffffffffffffffffffffff021916908373ffffffffffffffffffffffffffffffffffffffff16021790555060208201518160000160146101000a8154816bffffffffffffffffffffffff02191690836bffffffffffffffffffffffff160217905550505080806116ec9061364e565b915050611435565b506127108110611739576040517f08c379a0000000000000000000000000000000000000000000000000000000008152600401611730906132bf565b60405180910390fd5b6117438383612148565b505050565b600061175382611300565b611792576040517f08c379a00000000000000000000000000000000000000000000000000000000081526004016117899061315f565b60405180910390fd5b600061179d83610b27565b90508073ffffffffffffffffffffffffffffffffffffffff168473ffffffffffffffffffffffffffffffffffffffff16148061180c57508373ffffffffffffffffffffffffffffffffffffffff166117f484610547565b73ffffffffffffffffffffffffffffffffffffffff16145b8061181d575061181c8185611092565b5b91505092915050565b8273ffffffffffffffffffffffffffffffffffffffff1661184682610b27565b73ffffffffffffffffffffffffffffffffffffffff161461189c576040517f08c379a0000000000000000000000000000000000000000000000000000000008152600401611893906130df565b60405180910390fd5b600073ffffffffffffffffffffffffffffffffffffffff168273ffffffffffffffffffffffffffffffffffffffff16141561190c576040517f08c379a00000000000000000000000000000000000000000000000000000000081526004016119039061311f565b60405180910390fd5b611917838383612185565b611922600082611374565b6001600360008573ffffffffffffffffffffffffffffffffffffffff1673ffffffffffffffffffffffffffffffffffffffff16815260200190815260200160002060008282546119729190613508565b925050819055506001600360008473ffffffffffffffffffffffffffffffffffffffff1673ffffffffffffffffffffffffffffffffffffffff16815260200190815260200160002060008282546119c99190613427565b92505081905550816002600083815260200190815260200160002060006101000a81548173ffffffffffffffffffffffffffffffffffffffff021916908373ffffffffffffffffffffffffffffffffffffffff160217905550808273ffffffffffffffffffffffffffffffffffffffff168473ffffffffffffffffffffffffffffffffffffffff167fddf252ad1be2c89b69c2b068fc378daa952ba7f163c4a11628f55a4df523b3ef60405160405180910390a4611a8883838361218a565b505050565b600081600001549050919050565b600073ffffffffffffffffffffffffffffffffffffffff168273ffffffffffffffffffffffffffffffffffffffff161415611b0b576040517f08c379a0000000000000000000000000000000000000000000000000000000008152600401611b02906131ff565b60405180910390fd5b611b1481611300565b15611b54576040517f08c379a0000000000000000000000000000000000000000000000000000000008152600401611b4b906130ff565b60405180910390fd5b611b6060008383612185565b6001600360008473ffffffffffffffffffffffffffffffffffffffff1673ffffffffffffffffffffffffffffffffffffffff1681526020019081526020016000206000828254611bb09190613427565b92505081905550816002600083815260200190815260200160002060006101000a81548173ffffffffffffffffffffffffffffffffffffffff021916908373ffffffffffffffffffffffffffffffffffffffff160217905550808273ffffffffffffffffffffffffffffffffffffffff16600073ffffffffffffffffffffffffffffffffffffffff167fddf252ad1be2c89b69c2b068fc378daa952ba7f163c4a11628f55a4df523b3ef60405160405180910390a4611c716000838361218a565b5050565b6001816000016000828254019250508190555050565b6000600660009054906101000a900473ffffffffffffffffffffffffffffffffffffffff16905081600660006101000a81548173ffffffffffffffffffffffffffffffffffffffff021916908373ffffffffffffffffffffffffffffffffffffffff1602179055508173ffffffffffffffffffffffffffffffffffffffff168173ffffffffffffffffffffffffffffffffffffffff167f8be0079c531659141344cd1fd0a4f28419497f9722a3daafe3b4186f6b6457e060405160405180910390a35050565b8173ffffffffffffffffffffffffffffffffffffffff168373ffffffffffffffffffffffffffffffffffffffff161415611dc0576040517f08c379a0000000000000000000000000000000000000000000000000000000008152600401611db79061313f565b60405180910390fd5b80600560008573ffffffffffffffffffffffffffffffffffffffff1673ffffffffffffffffffffffffffffffffffffffff16815260200190815260200160002060008473ffffffffffffffffffffffffffffffffffffffff1673ffffffffffffffffffffffffffffffffffffffff16815260200190815260200160002060006101000a81548160ff0219169083151502179055508173ffffffffffffffffffffffffffffffffffffffff168373ffffffffffffffffffffffffffffffffffffffff167f17307eab39ab6107e8899845ad3d59bd9653f200f220920489ca2b5937696c3183604051611eb19190613062565b60405180910390a3505050565b611ec9848484611826565b611ed58484848461218f565b611f14576040517f08c379a0000000000000000000000000000000000000000000000000000000008152600401611f0b9061309f565b60405180910390fd5b50505050565b606060405180602001604052806000815250905090565b60606000821415611f79576040518060400160405280600181526020017f300000000000000000000000000000000000000000000000000000000000000081525090506120d9565b600082905060005b60008214611fab578080611f949061364e565b915050600a82611fa4919061347d565b9150611f81565b60008167ffffffffffffffff811115611fed577f4e487b7100000000000000000000000000000000000000000000000000000000600052604160045260246000fd5b6040519080825280601f01601f19166020018201604052801561201f5781602001600182028036833780820191505090505b5090505b600085146120d2576001826120389190613508565b9150600a856120479190613697565b60306120539190613427565b60f81b81838151811061208f577f4e487b7100000000000000000000000000000000000000000000000000000000600052603260045260246000fd5b60200101907effffffffffffffffffffffffffffffffffffffffffffffffffffffffffffff1916908160001a905350600a856120cb919061347d565b9450612023565b8093505050505b919050565b60007f01ffc9a7000000000000000000000000000000000000000000000000000000007bffffffffffffffffffffffffffffffffffffffffffffffffffffffff1916827bffffffffffffffffffffffffffffffffffffffffffffffffffffffff1916149050919050565b7f3fa96d7b6bcbfe71ef171666d84db3cf52fa2d1c8afdb1cc8e486177f208b7df828260405161217992919061331a565b60405180910390a15050565b505050565b505050565b60006121b08473ffffffffffffffffffffffffffffffffffffffff16612326565b15612319578373ffffffffffffffffffffffffffffffffffffffff1663150b7a026121d961136c565b8786866040518563ffffffff1660e01b81526004016121fb9493929190612fcb565b602060405180830381600087803b15801561221557600080fd5b505af192505050801561224657506040513d601f19601f82011682018060405250810190612243919061266e565b60015b6122c9573d8060008114612276576040519150601f19603f3d011682016040523d82523d6000602084013e61227b565b606091505b506000815114156122c1576040517f08c379a00000000000000000000000000000000000000000000000000000000081526004016122b89061309f565b60405180910390fd5b805181602001fd5b63150b7a0260e01b7bffffffffffffffffffffffffffffffffffffffffffffffffffffffff1916817bffffffffffffffffffffffffffffffffffffffffffffffffffffffff19161491505061231e565b600190505b949350505050565b6000808273ffffffffffffffffffffffffffffffffffffffff16803b806020016040519081016040528181526000908060200190933c51119050919050565b6040518060400160405280600073ffffffffffffffffffffffffffffffffffffffff16815260200160006bffffffffffffffffffffffff1681525090565b60006123b66123b18461337b565b61334a565b9050828152602081018484840111156123ce57600080fd5b6123d98482856135da565b509392505050565b6000813590506123f081613795565b92915050565b600081359050612405816137ac565b92915050565b60008135905061241a816137c3565b92915050565b60008135905061242f816137da565b92915050565b600081519050612444816137da565b92915050565b600082601f83011261245b57600080fd5b813561246b8482602086016123a3565b91505092915050565b600081359050612483816137f1565b92915050565b60008135905061249881613808565b92915050565b6000602082840312156124b057600080fd5b60006124be848285016123e1565b91505092915050565b600080604083850312156124da57600080fd5b60006124e8858286016123e1565b92505060206124f9858286016123e1565b9150509250929050565b60008060006060848603121561251857600080fd5b6000612526868287016123e1565b9350506020612537868287016123e1565b925050604061254886828701612474565b9150509250925092565b6000806000806080858703121561256857600080fd5b6000612576878288016123e1565b9450506020612587878288016123e1565b935050604061259887828801612474565b925050606085013567ffffffffffffffff8111156125b557600080fd5b6125c18782880161244a565b91505092959194509250565b600080604083850312156125e057600080fd5b60006125ee858286016123e1565b92505060206125ff8582860161240b565b9150509250929050565b6000806040838503121561261c57600080fd5b600061262a858286016123e1565b925050602061263b85828601612474565b9150509250929050565b60006020828403121561265757600080fd5b600061266584828501612420565b91505092915050565b60006020828403121561268057600080fd5b600061268e84828501612435565b91505092915050565b6000602082840312156126a957600080fd5b60006126b784828501612474565b91505092915050565b6000806000606084860312156126d557600080fd5b60006126e386828701612474565b93505060206126f4868287016123f6565b925050604061270586828701612489565b9150509250925092565b6000806040838503121561272257600080fd5b600061273085828601612474565b925050602061274185828601612474565b9150509250929050565b60006127578383612f3f565b60408301905092915050565b61276c8161354e565b82525050565b61277b8161353c565b82525050565b600061278c826133bb565b61279681856133e9565b93506127a1836133ab565b8060005b838110156127d25781516127b9888261274b565b97506127c4836133dc565b9250506001810190506127a5565b5085935050505092915050565b6127e881613560565b82525050565b60006127f9826133c6565b61280381856133fa565b93506128138185602086016135e9565b61281c81613784565b840191505092915050565b6000612832826133d1565b61283c818561340b565b935061284c8185602086016135e9565b61285581613784565b840191505092915050565b600061286b826133d1565b612875818561341c565b93506128858185602086016135e9565b80840191505092915050565b600061289e60328361340b565b91507f4552433732313a207472616e7366657220746f206e6f6e20455243373231526560008301527f63656976657220696d706c656d656e74657200000000000000000000000000006020830152604082019050919050565b600061290460268361340b565b91507f4f776e61626c653a206e6577206f776e657220697320746865207a65726f206160008301527f64647265737300000000000000000000000000000000000000000000000000006020830152604082019050919050565b600061296a60258361340b565b91507f4552433732313a207472616e736665722066726f6d20696e636f72726563742060008301527f6f776e65720000000000000000000000000000000000000000000000000000006020830152604082019050919050565b60006129d0601c8361340b565b91507f4552433732313a20746f6b656e20616c7265616479206d696e746564000000006000830152602082019050919050565b6000612a1060248361340b565b91507f4552433732313a207472616e7366657220746f20746865207a65726f2061646460008301527f72657373000000000000000000000000000000000000000000000000000000006020830152604082019050919050565b6000612a7660198361340b565b91507f4552433732313a20617070726f766520746f2063616c6c6572000000000000006000830152602082019050919050565b6000612ab6602c8361340b565b91507f4552433732313a206f70657261746f7220717565727920666f72206e6f6e657860008301527f697374656e7420746f6b656e00000000000000000000000000000000000000006020830152604082019050919050565b6000612b1c60208361340b565b91507f526f79616c74792076616c75652073686f756c6420626520706f7369746976656000830152602082019050919050565b6000612b5c60388361340b565b91507f4552433732313a20617070726f76652063616c6c6572206973206e6f74206f7760008301527f6e6572206e6f7220617070726f76656420666f7220616c6c00000000000000006020830152604082019050919050565b6000612bc2602a8361340b565b91507f4552433732313a2062616c616e636520717565727920666f7220746865207a6560008301527f726f2061646472657373000000000000000000000000000000000000000000006020830152604082019050919050565b6000612c2860298361340b565b91507f4552433732313a206f776e657220717565727920666f72206e6f6e657869737460008301527f656e7420746f6b656e00000000000000000000000000000000000000000000006020830152604082019050919050565b6000612c8e60208361340b565b91507f4552433732313a206d696e7420746f20746865207a65726f20616464726573736000830152602082019050919050565b6000612cce602c8361340b565b91507f4552433732313a20617070726f76656420717565727920666f72206e6f6e657860008301527f697374656e7420746f6b656e00000000000000000000000000000000000000006020830152604082019050919050565b6000612d3460208361340b565b91507f4f776e61626c653a2063616c6c6572206973206e6f7420746865206f776e65726000830152602082019050919050565b6000612d74602f8361340b565b91507f4552433732314d657461646174613a2055524920717565727920666f72206e6f60008301527f6e6578697374656e7420746f6b656e00000000000000000000000000000000006020830152604082019050919050565b6000612dda60218361340b565b91507f4552433732313a20617070726f76616c20746f2063757272656e74206f776e6560008301527f72000000000000000000000000000000000000000000000000000000000000006020830152604082019050919050565b6000612e4060318361340b565b91507f4552433732313a207472616e736665722063616c6c6572206973206e6f74206f60008301527f776e6572206e6f7220617070726f7665640000000000000000000000000000006020830152604082019050919050565b6000612ea660258361340b565b91507f526f79616c747920746f74616c2076616c75652073686f756c64206265203c2060008301527f31303030300000000000000000000000000000000000000000000000000000006020830152604082019050919050565b6000612f0c601b8361340b565b91507f526563697069656e742073686f756c642062652070726573656e7400000000006000830152602082019050919050565b604082016000820151612f556000850182612763565b506020820151612f686020850182612f7d565b50505050565b612f77816135b8565b82525050565b612f86816135c2565b82525050565b6000612f988285612860565b9150612fa48284612860565b91508190509392505050565b6000602082019050612fc56000830184612772565b92915050565b6000608082019050612fe06000830187612772565b612fed6020830186612772565b612ffa6040830185612f6e565b818103606083015261300c81846127ee565b905095945050505050565b600060408201905061302c6000830185612772565b6130396020830184612f6e565b9392505050565b6000602082019050818103600083015261305a8184612781565b905092915050565b600060208201905061307760008301846127df565b92915050565b600060208201905081810360008301526130978184612827565b905092915050565b600060208201905081810360008301526130b881612891565b9050919050565b600060208201905081810360008301526130d8816128f7565b9050919050565b600060208201905081810360008301526130f88161295d565b9050919050565b60006020820190508181036000830152613118816129c3565b9050919050565b6000602082019050818103600083015261313881612a03565b9050919050565b6000602082019050818103600083015261315881612a69565b9050919050565b6000602082019050818103600083015261317881612aa9565b9050919050565b6000602082019050818103600083015261319881612b0f565b9050919050565b600060208201905081810360008301526131b881612b4f565b9050919050565b600060208201905081810360008301526131d881612bb5565b9050919050565b600060208201905081810360008301526131f881612c1b565b9050919050565b6000602082019050818103600083015261321881612c81565b9050919050565b6000602082019050818103600083015261323881612cc1565b9050919050565b6000602082019050818103600083015261325881612d27565b9050919050565b6000602082019050818103600083015261327881612d67565b9050919050565b6000602082019050818103600083015261329881612dcd565b9050919050565b600060208201905081810360008301526132b881612e33565b9050919050565b600060208201905081810360008301526132d881612e99565b9050919050565b600060208201905081810360008301526132f881612eff565b9050919050565b60006020820190506133146000830184612f6e565b92915050565b600060408201905061332f6000830185612f6e565b81810360208301526133418184612781565b90509392505050565b6000604051905081810181811067ffffffffffffffff8211171561337157613370613755565b5b8060405250919050565b600067ffffffffffffffff82111561339657613395613755565b5b601f19601f8301169050602081019050919050565b6000819050602082019050919050565b600081519050919050565b600081519050919050565b600081519050919050565b6000602082019050919050565b600082825260208201905092915050565b600082825260208201905092915050565b600082825260208201905092915050565b600081905092915050565b6000613432826135b8565b915061343d836135b8565b9250827fffffffffffffffffffffffffffffffffffffffffffffffffffffffffffffffff03821115613472576134716136c8565b5b828201905092915050565b6000613488826135b8565b9150613493836135b8565b9250826134a3576134a26136f7565b5b828204905092915050565b60006134b9826135b8565b91506134c4836135b8565b9250817fffffffffffffffffffffffffffffffffffffffffffffffffffffffffffffffff04831182151516156134fd576134fc6136c8565b5b828202905092915050565b6000613513826135b8565b915061351e836135b8565b925082821015613531576135306136c8565b5b828203905092915050565b600061354782613598565b9050919050565b600061355982613598565b9050919050565b60008115159050919050565b60007fffffffff0000000000000000000000000000000000000000000000000000000082169050919050565b600073ffffffffffffffffffffffffffffffffffffffff82169050919050565b6000819050919050565b60006bffffffffffffffffffffffff82169050919050565b82818337600083830152505050565b60005b838110156136075780820151818401526020810190506135ec565b83811115613616576000848401525b50505050565b6000600282049050600182168061363457607f821691505b6020821081141561364857613647613726565b5b50919050565b6000613659826135b8565b91507fffffffffffffffffffffffffffffffffffffffffffffffffffffffffffffffff82141561368c5761368b6136c8565b5b600182019050919050565b60006136a2826135b8565b91506136ad836135b8565b9250826136bd576136bc6136f7565b5b828206905092915050565b7f4e487b7100000000000000000000000000000000000000000000000000000000600052601160045260246000fd5b7f4e487b7100000000000000000000000000000000000000000000000000000000600052601260045260246000fd5b7f4e487b7100000000000000000000000000000000000000000000000000000000600052602260045260246000fd5b7f4e487b7100000000000000000000000000000000000000000000000000000000600052604160045260246000fd5b6000601f19601f8301169050919050565b61379e8161353c565b81146137a957600080fd5b50565b6137b58161354e565b81146137c057600080fd5b50565b6137cc81613560565b81146137d757600080fd5b50565b6137e38161356c565b81146137ee57600080fd5b50565b6137fa816135b8565b811461380557600080fd5b50565b613811816135c2565b811461381c57600080fd5b5056fea26469706673582212209dd2e9a6ed0f9d42c447de51de68c3c4f82513fc14f9f5ef259eaa6862a78fe564736f6c63430008000033",
  "linkReferences": {},
  "deployedLinkReferences": {}
}